{
  "_format": "hh-sol-artifact-1",
  "contractName": "LiquidityPool",
  "sourceName": "contracts/LiquidityPool.sol",
  "abi": [
    {
      "inputs": [
        {
          "internalType": "uint256",
          "name": "_poolId",
          "type": "uint256"
        },
        {
          "internalType": "uint256",
          "name": "_amount",
          "type": "uint256"
        }
      ],
      "name": "contribute",
      "outputs": [],
      "stateMutability": "nonpayable",
      "type": "function"
    },
    {
      "inputs": [
        {
          "internalType": "uint256",
          "name": "",
          "type": "uint256"
        },
        {
          "internalType": "address",
          "name": "",
          "type": "address"
        }
      ],
      "name": "contributions",
      "outputs": [
        {
          "internalType": "uint256",
          "name": "",
          "type": "uint256"
        }
      ],
      "stateMutability": "view",
      "type": "function"
    },
    {
      "inputs": [
        {
          "internalType": "address",
          "name": "_token",
          "type": "address"
        }
      ],
      "name": "createPool",
      "outputs": [],
      "stateMutability": "nonpayable",
      "type": "function"
    },
    {
      "inputs": [
        {
          "internalType": "uint256",
          "name": "_poolId",
          "type": "uint256"
        },
        {
          "internalType": "address",
          "name": "_user",
          "type": "address"
        }
      ],
      "name": "getContribution",
      "outputs": [
        {
          "internalType": "uint256",
          "name": "",
          "type": "uint256"
        }
      ],
      "stateMutability": "view",
      "type": "function"
    },
    {
      "inputs": [
        {
          "internalType": "uint256",
          "name": "_poolId",
          "type": "uint256"
        }
      ],
      "name": "getTotalContributions",
      "outputs": [
        {
          "internalType": "uint256",
          "name": "",
          "type": "uint256"
        }
      ],
      "stateMutability": "view",
      "type": "function"
    },
    {
      "inputs": [
        {
          "internalType": "uint256",
          "name": "",
          "type": "uint256"
        }
      ],
      "name": "pools",
      "outputs": [
        {
          "internalType": "address",
          "name": "token",
          "type": "address"
        },
        {
          "internalType": "uint256",
          "name": "totalContributions",
          "type": "uint256"
        }
      ],
      "stateMutability": "view",
      "type": "function"
    }
  ],
  "bytecode": "0x608060405234801561001057600080fd5b506107a4806100206000396000f3fe608060405234801561001057600080fd5b50600436106100625760003560e01c80633d891f59146100675780635bd1baaf146100975780638c590917146100c75780639049f9d2146100e3578063ac4afa38146100ff578063e081dbf914610130575b600080fd5b610081600480360381019061007c9190610523565b610160565b60405161008e9190610572565b60405180910390f35b6100b160048036038101906100ac919061058d565b610185565b6040516100be9190610572565b60405180910390f35b6100e160048036038101906100dc91906105ba565b6101fa565b005b6100fd60048036038101906100f891906105fa565b6102e8565b005b6101196004803603810190610114919061058d565b610395565b604051610127929190610636565b60405180910390f35b61014a60048036038101906101459190610523565b6103e9565b6040516101579190610572565b60405180910390f35b6001602052816000526040600020602052806000526040600020600091509150505481565b6000808054905082106101cd576040517f08c379a00000000000000000000000000000000000000000000000000000000081526004016101c4906106bc565b60405180910390fd5b600082815481106101e1576101e06106dc565b5b9060005260206000209060020201600101549050919050565b6000805490508210610241576040517f08c379a0000000000000000000000000000000000000000000000000000000008152600401610238906106bc565b60405180910390fd5b806001600084815260200190815260200160002060003373ffffffffffffffffffffffffffffffffffffffff1673ffffffffffffffffffffffffffffffffffffffff16815260200190815260200160002060008282546102a1919061073a565b9250508190555080600083815481106102bd576102bc6106dc565b5b906000526020600020906002020160010160008282546102dd919061073a565b925050819055505050565b600060405180604001604052808373ffffffffffffffffffffffffffffffffffffffff1681526020016000815250908060018154018082558091505060019003906000526020600020906002020160009091909190915060008201518160000160006101000a81548173ffffffffffffffffffffffffffffffffffffffff021916908373ffffffffffffffffffffffffffffffffffffffff16021790555060208201518160010155505050565b600081815481106103a557600080fd5b90600052602060002090600202016000915090508060000160009054906101000a900473ffffffffffffffffffffffffffffffffffffffff16908060010154905082565b600080805490508310610431576040517f08c379a0000000000000000000000000000000000000000000000000000000008152600401610428906106bc565b60405180910390fd5b6001600084815260200190815260200160002060008373ffffffffffffffffffffffffffffffffffffffff1673ffffffffffffffffffffffffffffffffffffffff16815260200190815260200160002054905092915050565b600080fd5b6000819050919050565b6104a28161048f565b81146104ad57600080fd5b50565b6000813590506104bf81610499565b92915050565b600073ffffffffffffffffffffffffffffffffffffffff82169050919050565b60006104f0826104c5565b9050919050565b610500816104e5565b811461050b57600080fd5b50565b60008135905061051d816104f7565b92915050565b6000806040838503121561053a5761053961048a565b5b6000610548858286016104b0565b92505060206105598582860161050e565b9150509250929050565b61056c8161048f565b82525050565b60006020820190506105876000830184610563565b92915050565b6000602082840312156105a3576105a261048a565b5b60006105b1848285016104b0565b91505092915050565b600080604083850312156105d1576105d061048a565b5b60006105df858286016104b0565b92505060206105f0858286016104b0565b9150509250929050565b6000602082840312156106105761060f61048a565b5b600061061e8482850161050e565b91505092915050565b610630816104e5565b82525050565b600060408201905061064b6000830185610627565b6106586020830184610563565b9392505050565b600082825260208201905092915050565b7f506f6f6c20646f6573206e6f7420657869737400000000000000000000000000600082015250565b60006106a660138361065f565b91506106b182610670565b602082019050919050565b600060208201905081810360008301526106d581610699565b9050919050565b7f4e487b7100000000000000000000000000000000000000000000000000000000600052603260045260246000fd5b7f4e487b7100000000000000000000000000000000000000000000000000000000600052601160045260246000fd5b60006107458261048f565b91506107508361048f565b92508282019050808211156107685761076761070b565b5b9291505056fea26469706673582212202fd5d5d2a8e268dd877af033892425b487320c2ccbf16a00d2c029f700f7f75264736f6c63430008180033",
  "linkReferences": {},
  "deployedLinkReferences": {}
}